:020000040800F2
:1000000000C00020C13D0008153000081D30000868
:10001000253000082D3000083530000800000000B1
:100020000000000000000000000000003D3000085B
:100030004930000800000000553000086130000819
:10004000093E0008093E0008093E0008093E000874
:10005000093E0008093E0008093E0008093E000864
:10006000093E0008093E0008093E00086D300008FE
:10007000093E0008093E0008093E0008093E000844
:10008000093E0008093E0008093E0008093E000834
:10009000093E0008093E0008093E0008093E000824
:1000A000093E0008093E0008093E0008093E000814
:1000B0008130000895300008A9300008093E00088A
:1000C000093E0008093E0008093E0008093E0008F4
:1000D000093E0008BD300008D1300008093E000884
:1000E000093E0008093E0008093E0008093E0008D4
:1000F000093E0008093E0008093E0008093E0008C4
:10010000093E0008093E0008093E0008093E0008B3
:10011000093E0008093E0008093E0008093E0008A3
:10012000093E0008093E0008093E0008093E000893
:1001300000000000000000000000000000000000BF
:1001400000000000000000000000000000000000AF
:10015000000000000000000000000000000000009F
:10016000000000000000000000000000000000008F
:10017000000000000000000000000000000000007F
:10018000000000000000000000000000000000006F
:10019000000000000000000000000000000000005F
:1001A000000000000000000000000000000000004F
:1001B000000000000000000000000000000000003F
:1001C000000000000000000000000000000000002F
:1001D000000000000000000000000000000000001F
:0401E0005FF8E0F1F3
:1001E40010B5054C237833B9044B13B10448AFF36D
:1001F40000800123237010BD3400002000000000A3
:10020400589A000808B5034B1BB103490348AFF3E0
:10021400008008BD0000000038000020589A000843
:10022400034613F8012B002AFBD1181A0138704732
:1002340080B584B000AF3B1D00221A605A609A60FA
:100244004A4B4B4A1A60494B4FF480729A60474BB1
:1002540000221A73454B00221A75444B4FF4602256
:10026400DA61424B00225A60404B08221A613F482F
:1002740003F050FE0346002B01D001F092FA08234C
:100284007B600123BB600323FB603B1D1946374899
:1002940004F024F80346002B01D001F082FA09236C
:1002A4007B600223BB603B1D1946304804F016F8FE
:1002B4000346002B01D001F074FA0A237B60032368
:1002C400BB603B1D1946294804F008F80346002B7F
:1002D40001D001F066FA0B237B600423BB603B1D55
:1002E4001946224803F0FAFF0346002B01D001F01F
:1002F40058FA0C237B600523BB603B1D19461B4841
:1003040003F0ECFF0346002B01D001F04AFA0D2361
:100314007B600623BB603B1D1946144803F0DEFFD7
:100324000346002B01D001F03CFA0E237B60072327
:10033400BB603B1D19460D4803F0D0FF0346002B5C
:1003440001D001F02EFA0F237B600823BB603B1D14
:100354001946064803F0C2FF0346002B01D001F002
:1003640020FA00BF1037BD4680BD00BF50000020FA
:100374000024014080B58AB000AF786007F118030B
:1003840000221A605A609A60DA607B681B68334AFC
:1003940093425FD1324B9B69314A43F400739361BA
:1003A4002F4B9B6903F400737B617B692C4B9B6926
:1003B4002B4A43F010039361294B9B6903F010030C
:1003C4003B613B69264B9B69254A43F008039361D3
:1003D400234B9B6903F00803FB60FB683F23BB616D
:1003E4000323FB6107F1180319461E4804F002FFBA
:1003F4000323BB610323FB6107F1180319461A4861
:1004040004F0F8FE194B1A4A1A60184B00225A607D
:10041400164B00229A60154B8022DA60134B4FF47E
:1004240080721A61114B4FF480625A610F4B0022A3
:100434009A610E4B0022DA610C4804F057FA034625
:10044400002B01D001F0ADF97B68084A1A62074A13
:100454007B68536200BF2837BD4680BD002401403D
:100464000010024000100140000C014080000020F8
:100474000800024080B500AF01224FF400410E484D
:1004840005F063F800224FF400410B4805F05DF8D5
:1004940001224FF40041084805F057F80A230122CD
:1004A4000649074806F034FE0346002B01D1012318
:1004B40000E00023184680BD00080140C800002069
:1004C400D801002080B582B000AF00224FF4004173
:1004D4001B4805F03AF801224FF40041184805F092
:1004E40034F80A2301221749174806F011FE03467F
:1004F400002B01D000231FE00023FB7118E0114BF7
:100504001B781A46FB7942FA03F303F00103002B2C
:1005140004D0FB790D4A0021D15406E0FB790B4A43
:10052400D25C0132D1B2094AD154FB790133FB7157
:10053400FB79032BE3D9012318460837BD4680BD58
:1005440000080140C8000020D8010020C400002099
:1005540080B483B000AF0346FB71FB790A4AD35CD5
:10056400282B03D9FB79084A0121D154FB79064A87
:10057400D35C012B01D1012300E0002318460C3782
:10058400BD4680BC704700BFC400002080B582B067
:1005940000AF0023FB710EE000210B4807F084FA42
:1005A4000346002B01D1012309E0322003F08EFC25
:1005B400FB790133FB71FB79022BEDD9002318463B
:1005C4000837BD4680BD00BF1803002080B584B045
:1005D40000AF78607B68002B04D10021204807F02D
:1005E4001DFB3AE00123FB601E4AFB68B2FBF3F2F9
:1005F4007B68B2FBF3F3013BBB600BE0FB680133A8
:10060400FB60184AFB68B2FBF3F27B68B2FBF3F3BE
:10061400013BBB60BB68B3F5803F04D3FB684FF676
:10062400FE729342EAD9BB68B3F5803F14D20C4BF7
:100634001B68FA689A620A4B1B68BA68DA62084A4D
:10064400BB68D360064B1B68BA6852085A63002122
:10065400034807F029FA00E000BF1037BD4680BD0B
:100664001803002000A24A0480B500AF002102480C
:1006740007F0D4FA00BF80BD1803002080B500AF96
:1006840001224FF48051114804F05FFF00224FF41F
:1006940080510E4804F059FF012301220C490D48F2
:1006A40006F0F2FB0346002B07D001224FF48051E1
:1006B400064804F04AFF002306E001224FF480516B
:1006C400024804F042FF0123184680BD0010014097
:1006D4000A000020D801002080B500AF374B1B88EA
:1006E4001A46374B9A5C374B1A70344B1B88022BD3
:1006F4002CD0022B3DDC002B02D0012B13D038E090
:1007040001224FF48051304804F01FFF00224FF4BF
:1007140000612D4804F019FF01224FF480712A482A
:1007240004F013FF26E000224FF48051264804F021
:100734000CFF01224FF40061234804F006FF01225C
:100744004FF48071204804F000FF13E001224FF4BD
:1007540080511D4804F0F9FE01224FF400611A484B
:1007640004F0F3FE00224FF48071174804F0EDFE0C
:1007740000E000BF114B1B885A1C144B83FB023151
:10078400D317C91A0B465B000B44D11A8AB20B4B20
:100794001A8000224FF480510D4804F0D6FE012344
:1007A400012208490B4806F06FFB01224FF48051E7
:1007B400074804F0CAFE00BF80BD00BFD00000207F
:1007C400CC0000200A000020000801405655555571
:1007D40000100140D801002080B483B000AF03466C
:1007E400FB71FB790F4AA2FB0323DB08DBB21A4639
:1007F4000D4B9A5C0D4B5A70FA790A4BA3FB02130A
:10080400D9080B469B000B445B00D31ADBB21A4693
:10081400054B9A5C054B1A7000BF0C37BD4680BC73
:10082400704700BFCDCCCCCC00000020CC00002011
:1008340080B483B000AF0346FB71FB791B09DBB2C4
:100844005AB297F907301B015BB213435BB2FB71D9
:10085400FB799B105BB203F033035AB297F907306C
:100864009B005BB223F033035BB213435BB2FB71B7
:10087400FB795B105BB203F055035AB297F907306A
:100884005B005BB223F055035BB213435BB2FB71B5
:10089400FB7918460C37BD4680BC704780B582B0E2
:1008A40000AF0346FB71FB791846FFF7C1FF03460F
:1008B400DB43DAB2024B9A7000BF0837BD4680BDF5
:1008C400CC00002080B500AF4FF40041024804F092
:1008D40054FE00BF80BD00BF0010014080B582B04F
:1008E40000AF0C4B5B690B4A43F001035361094BA6
:1008F4005B6903F001037B607B68002200210B200D
:1009040003F0BDFF0B2003F0D6FF00BF0837BD4640
:1009140080BD00BF0010024080B582B000AF00234C
:10092400FB713FE0FB79234A52F82320FB792249EB
:1009340031F813301946104604F0F0FD0346002B3D
:1009440020D0012B2BD1FB791C4AD35C002B23D163
:10095400FB791A4A0121D154FB79194A52F8233000
:10096400B3F1FF3F08D0FB79154A52F82320013236
:10097400134941F823200FE0FB79114A002142F882
:10098400231009E0FB790D4AD35C012B06D1FB79D6
:100994000A4A0021D15401E000BF00E000BFFB7906
:1009A4000133FB71FB79032BBCD900BF00BF0837AF
:1009B400BD4680BD0C0000201C000020E400002087
:1009C400D400002080B483B000AF0346FB71FB79F0
:1009D400034A52F8233018460C37BD4680BC704792
:1009E400D400002080B500AF444B1B78002B7ED18F
:1009F400434B1A78434B1A7000F020FD03461A4605
:100A04003F4B1A703E4B1B78013B072B71D801A258
:100A140052F823F0DD0A0008390A00088F0A00089A
:100A2400A90A0008C30A0008410A00085B0A000872
:100A3400750A0008192001F0C7F85DE0102001F0E4
:100A44000FF8102001F036F8192001F05DF8192094
:100A540001F082F850E0082001F002F8082001F0CB
:100A640029F8192001F050F8192001F075F843E035
:100A7400002000F0F5FF002001F01CF8192001F01F
:100A840043F8192001F068F836E0192000F0E8FF77
:100A9400192001F00FF8102001F036F8102001F0B1
:100AA4005BF829E0192000F0DBFF192001F002F8BF
:100AB400082001F029F8082001F04EF81CE0192064
:100AC40000F0CEFF192000F0F5FF002001F01CF823
:100AD400002001F041F80FE00A4B1B78012B0AD0EB
:100AE400094B1B8801339AB2074B1A8003E000BFFD
:100AF40002E000BF00E000BF80BD00BFE8000020AE
:100B04002400002025000020EA00002080B582B0E7
:100B140000AF0346FB805F4B1B88FA889A4229D1B9
:100B24005D4B1B78002B25D15C4B1B88FA889A42BD
:100B340020D00020FFF746FF0346594A13600120E6
:100B4400FFF740FF0346574A13600220FFF73AFFBE
:100B54000346554A13600320FFF734FF0346534A04
:100B64001360192001F030F84C4AFB8813804A4B7B
:100B740001221A70484B1B78012B40F0858000201D
:100B8400FFF720FF0246464B1B68D31A392B4AD97C
:100B94000120FFF717FF0246424B1B68D31A392B7B
:100BA40041D90220FFF70EFF02463F4B1B68D31AC0
:100BB400392B38D90320FFF705FF02463B4B1B684E
:100BC400D31A392B2FD9192001F0CEF80020FFF7C2
:100BD400F9FE0246324B1B68D31A9B2B56D90120CF
:100BE400FFF7F0FE02462F4B1B68D31A9B2B4DD9FF
:100BF4000220FFF7E7FE02462B4B1B68D31A9B2B00
:100C040044D90320FFF7DEFE0246284B1B68D31AA3
:100C14009B2B3BD900F012FC0346022B36D11E4B12
:100C240000221A7032E00020FFF7CCFE02461C4B73
:100C34001B68D31A392B02D9002000F011FF0120C0
:100C4400FFF7C0FE0246174B1B68D31A392B02D993
:100C5400002000F02FFF0220FFF7B4FE0246124BE3
:100C64001B68D31A392B02D9002000F04DFF032052
:100C7400FFF7A8FE02460D4B1B68D31A392B06D981
:100C8400002000F069FF02E000BF00E000BF083769
:100C9400BD4680BDEA000020E8000020EC000020F2
:100CA400F0000020F4000020F8000020FC000020E8
:100CB40080B582B000AF0346FB805F4B1B88FA8887
:100CC4009A4229D15D4B1B78002B25D15C4B1B88A4
:100CD400FA889A4220D00020FFF774FE0346594A4E
:100CE40013600120FFF76EFE0346574A136002208B
:100CF400FFF768FE0346554A13600320FFF762FEC0
:100D04000346534A1360192000F05EFF4C4AFB88E7
:100D140013804A4B02221A70484B1B78022B40F076
:100D240085800020FFF74EFE0246464B1B68D31A0F
:100D3400392B4AD90120FFF745FE0246424B1B6876
:100D4400D31A392B41D90220FFF73CFE02463F4B10
:100D54001B68D31A392B38D90320FFF733FE024618
:100D64003B4B1B68D31A392B2FD9192000F0E4FF11
:100D74000020FFF727FE0246324B1B68D31A9B2B39
:100D840056D90120FFF71EFE02462F4B1B68D31ACB
:100D94009B2B4DD90220FFF715FE02462B4B1B68F7
:100DA400D31A9B2B44D90320FFF70CFE0246284B91
:100DB4001B68D31A9B2B3BD900F040FB0346022B44
:100DC40036D11E4B00221A7032E00020FFF7FAFDE4
:100DD40002461C4B1B68D31A392B02D9002000F0A1
:100DE4003FFE0120FFF7EEFD0246174B1B68D31AA6
:100DF400392B02D9002000F05DFE0220FFF7E2FD4E
:100E04000246124B1B68D31A392B02D9002000F07A
:100E14007BFE0320FFF7D6FD02460D4B1B68D31A59
:100E2400392B06D9002000F097FE02E000BF00E055
:100E340000BF0837BD4680BDEA000020E80000205E
:100E4400EC00002000010020040100200801002023
:100E54000C01002080B582B000AF0346FB80324B0A
:100E64001B88FA889A4229D1304B1B78002B25D154
:100E74002F4B1B88FA889A4220D00020FFF7A2FD4E
:100E840003462C4A13600120FFF79CFD03462A4ABF
:100E940013600220FFF796FD0346284A13600320DF
:100EA400FFF790FD0346264A1360192000F05CFF0B
:100EB4001F4AFB8813801D4B03221A701B4B1B789F
:100EC400032B2CD10020FFF77DFD0246194B1B6834
:100ED400D31AE92B24D90120FFF774FD0246164BDF
:100EE4001B68D31AE92B1BD90220FFF76BFD0246BE
:100EF400124B1B68D31AE92B12D90320FFF762FDAA
:100F040002460F4B1B68D31AE92B09D900F096FA55
:100F14000346022B04D1054B00221A7000E000BFE7
:100F24000837BD4680BD00BFEA000020E80000206D
:100F3400EC00002010010020140100201801002002
:100F44001C01002080B400AF034B04221A7000BFC0
:100F5400BD4680BC704700BFE800002080B400AFED
:100F6400034B00221A7000BFBD4680BC704700BF0F
:100F7400E800002080B400AF034B1B88DBB21846A6
:100F8400BD4680BC704700BFEA00002080B582B037
:100F940000AF0023FB7110E032230322AA210B4887
:100FA40004F0B4FE0346002B01D1012309E03220F2
:100FB40002F08CFFFB790133FB71FB79022BEBD937
:100FC400002318460837BD4680BD00BF40010020FD
:100FD40080B582B002AF4FF0FF3300931E23074A5F
:100FE400AA21074804F026FC0346002B01D1012363
:100FF40000E000231846BD4680BD00BF200100204C
:101004004001002080B483B000AF0346FB71FB793C
:101014000E2B00F2998001A252F823F05D10000813
:101024006D1000087D1000088D1000089D10000848
:10103400AD100008BD100008CD100008DD10000838
:10104400ED100008FD1000080D1100082D11000816
:101054003D1100081D1100083E4B5B78012B0CBFAD
:1010640001230023DBB270E03A4B5B78022B0CBF08
:1010740001230023DBB268E0364B5B78042B0CBF02
:1010840001230023DBB260E0324B5B78082B0CBFFA
:1010940001230023DBB258E02E4BDB7E012B0CBF77
:1010A40001230023DBB250E02A4BDB7E022B0CBF72
:1010B40001230023DBB248E0264BDB7E042B0CBF6C
:1010C40001230023DBB240E0224BDB7E082B0CBF64
:1010D40001230023DBB238E01E4BDB7E102B0CBF58
:1010E40001230023DBB230E01A4BDB7E402B0CBF24
:1010F40001230023DBB228E0164BDB7E202B0CBF40
:1011040001230023DBB220E0124BDB7E802B0CBFDB
:1011140001230023DBB218E00E4B5B7F012B0CBFD5
:1011240001230023DBB210E00A4B5B7F022B0CBFD0
:1011340001230023DBB208E0064B5B7F042B0CBFCA
:1011440001230023DBB200E0002318460C37BD4620
:1011540080BC70472001002080B400AF024B1846C9
:10116400BD4680BC704700BF2001002080B588B018
:1011740000AF07F1100300221A605A609A60DA6027
:101184004B4B9B694A4A43F010039361484B9B695C
:1011940003F01003FB60FB68454B9B69444A43F032
:1011A40020039361424B9B6903F02003BB60BB683F
:1011B4003F4B9B693E4A43F0040393613C4B9B695C
:1011C40003F004037B607B68394B9B69384A43F026
:1011D40008039361364B9B6903F008033B603B684B
:1011E40000224FF47041334804F0AFF9002249F66D
:1011F4000211314804F0A9F9002224212F4804F0F7
:10120400A4F94FF470433B6101237B610023BB616C
:101214000223FB6107F110031946264803F0EAFF95
:1012240049F602133B6101237B610023BB61022366
:10123400FB6107F1100319461F4803F0DBFF242369
:101244003B6101237B610023BB610223FB6107F146
:1012540010031946194803F0CDFF4FF208233B61F0
:1012640000237B610023BB6107F110031946134877
:1012740003F0C0FF4FF440633B6100237B61002314
:10128400BB6107F1100319460A4803F0B3FF0423B6
:101294003B6100237B610023BB6107F11003194606
:1012A400074803F0A7FF00BF2037BD4680BD00BF3D
:1012B400001002400010014000080140000C0140F1
:1012C4000014014080B500AF124B134A1A60114B51
:1012D400124A5A600F4B00229A600E4B0022DA60C9
:1012E4000C4B4FF480421A610A4B00225A61094B9D
:1012F40000229A61074B0022DA61064B00221A622F
:10130400044804F053F90346002B01D000F049FAD5
:1013140000BF80BD4001002000580040A0860100AD
:1013240080B588B000AF786007F1100300221A601E
:101334005A609A60DA607B681B68164A934224D12B
:10134400154B9B69144A43F008039361124B9B6944
:1013540003F00803FB60FB684FF440633B61122316
:101364007B610323FB6107F1100319460B4803F06B
:1013740041FF094BDB69084A43F48003D361064B00
:10138400DB6903F48003BB60BB6800BF2037BD4644
:1013940080BD00BF0058004000100240000C014016
:1013A40080B582B000AF0023FB710FE008220B4927
:1013B4000B4802F099FE0346002B01D1012309E0FA
:1013C400322002F083FDFB790133FB71FB79022BA0
:1013D400ECD9002318460837BD4680BD940100208F
:1013E4005000002080B582B000AF0023FB7116E0EE
:1013F40008220F490F4802F077FE0346002B08D15C
:101404000B4800F00DF903461A460B4B1A700123E2
:1014140009E0322002F05AFDFB790133FB71FB79BC
:10142400022BE5D9002318460837BD4680BD00BF0E
:10143400A401002050000020B401002080B483B037
:1014440000AF0023FB71664B1B7803F07E037E2BF9
:1014540000F09B807E2B00F3B980702B00F0B080ED
:10146400702B00F3B380402B00F38C80002BC0F270
:10147400AD80402B00F2AA8001A252F823F000BFF5
:1014840095150008D1150008B3150008D1150008FA
:10149400D1150008D1150008A7150008D1150008BA
:1014A400D1150008D1150008D1150008D115000880
:1014B400A1150008D1150008AD150008D1150008C4
:1014C400D1150008D1150008D1150008D115000860
:1014D400D1150008D1150008D1150008D115000850
:1014E4009B150008D1150008D1150008D115000876
:1014F400A1150008D1150008D1150008D115000860
:10150400D1150008D1150008D1150008D11500081F
:10151400D1150008D1150008D1150008D11500080F
:10152400D1150008D1150008D1150008D1150008FF
:10153400D1150008D1150008D1150008D1150008EF
:10154400B9150008D1150008D1150008D1150008F7
:10155400D1150008D1150008D1150008D1150008CF
:10156400B9150008D1150008D1150008D1150008D7
:10157400D1150008D1150008D1150008D1150008AF
:10158400CB150008602B18D020E00123FB7120E06C
:101594000023FB711DE00223FB711AE00323FB719E
:1015A40017E00423FB7114E00423FB7111E005230D
:1015B400FB710EE00623FB710BE00723FB7108E0CF
:1015C4000723FB7105E00823FB7102E00923FB718B
:1015D40000BFFB7918460C37BD4680BC704700BF7E
:1015E400B401002080B400AF024B1B781846BD46FE
:1015F40080BC7047B401002080B400AF024B184691
:10160400BD4680BC704700BF9401002080B400AF89
:10161400024B1846BD4680BC704700BFA4010020A1
:1016240080B485B000AF78600023FB730023BB60F7
:1016340023E0BB685B007A6813441B881946134A8D
:10164400BB6832F81330C83B99420CDBBB685B00C3
:101654007A6813441B8819460C4ABB6832F8133065
:10166400C833994206DD0A4ABB6813441A78FB7BE7
:101674001343FB73BB680133BB60BB68072BD8DD26
:10168400FB7B18461437BD4680BC7047940100208C
:10169400209C000880B500AF02F0B6FB00F024F8EF
:1016A400FFF764FDFFF71AF901F04CFE01F088FD25
:1016B40001F0D2FD01F04AFF02F01CFA02F044FAF4
:1016C40001F0CEFE01F036FBFEF7B2FDFFF7FAFDA6
:1016D40000F0B4FB03461846FFF77EF800F004FC64
:1016E40000F0DEFC00BFFBE780B596B000AF07F169
:1016F400300328220021184608F080F907F11C0362
:1017040000221A605A609A60DA601A613B1D002256
:101714001A605A609A60DA601A615A6101233B6365
:101724004FF480337B630023BB6301233B640223B8
:10173400FB644FF480333B654FF4E0137B6507F1A2
:101744003003184604F056FE0346002B01D000F087
:1017540028F80F23FB6102233B6200237B624FF4D2
:101764008063BB620023FB6207F11C03022118465D
:1017740005F0C2F80346002B01D000F012F8022352
:101784007B604FF40043FB603B1D184605F042FAB2
:101794000346002B01D000F004F800BF5837BD46C3
:1017A40080BD80B400AF72B600BF00BFFDE700008B
:1017B40080B582B000AF7860064A7B681360054B41
:1017C4001B68184602F0A4F8034618460837BD46BD
:1017D40080BD00BFC001002098B500AF234B1B683B
:1017E400234A93421BD102F03FF90346FF2B04D056
:1017F400204B1B78DBB2072B02D91E4B00221A7038
:101804001C4B1B78DBB25A1CD1B21A4A11701C460D
:1018140002F02AF903461A46174B1A5522E0134BD5
:101824001B68164A934204D0124B1B78DBB2072B79
:1018340016D902F019F90346FF2B02D10D4B0022F1
:101844001A700C4B1B78DBB25A1CD1B2094A1170C6
:101854001C4602F013F903461A46074B1A5501E0D9
:10186400002300E00123184698BD00BFC0010020FA
:10187400AC030020C4010020B8010020F4030020C0
:1018840080B483B000AF0346FB71FB79092B71D898
:1018940001A252F823F000BFC5180008D7180008A9
:1018A400E9180008FB180008311900081F1900087E
:1018B400431900080D190008551900086719000894
:1018C4002F4B9B79DBB2012B0CBF01230023DBB22E
:1018D40051E02B4B9B79DBB2022B0CBF012300237D
:1018E400DBB248E0264B9B79DBB2042B0CBF01230F
:1018F4000023DBB23FE0224B9B79DBB2082B0CBF09
:1019040001230023DBB236E01D4B5B79DBB2042BF1
:101914000CBF01230023DBB22DE0194B5B79DBB252
:10192400082B0CBF01230023DBB224E0144B5B79AA
:10193400DBB2102B0CBF01230023DBB21BE0104BE6
:101944005B79DBB2202B0CBF01230023DBB212E056
:101954000B4B5B79DBB2012B0CBF01230023DBB201
:1019640009E0074B5B79DBB2022B0CBF0123002398
:10197400DBB200E0002318460C37BD4680BC70473C
:10198400B801002080B400AF024B1846BD4680BCAD
:10199400704700BFB801002080B584B000AF034693
:1019A400FB710023FB7312E0FB790D4A52F82330DC
:1019B40019460C4806F078F80346002B01D10123A0
:1019C40009E0322002F082FAFB7B0133FB73FB7BDC
:1019D400022BE9D9002318461037BD4680BD00BF4D
:1019E400289C00086003002080B483B000AF034645
:1019F4000A46FB711346BB71BB79642B01D964237E
:101A0400BB71FB79144A52F82330002B04D1134BD9
:101A14001B68BA795A6319E0FB790F4A52F82330EC
:101A2400042B04D10D4B1A68BB7993630EE0FB7948
:101A3400094A52F82330082B04D1084B1A68BB79A1
:101A4400D36303E0054B1A68BB79136400BF0C37FA
:101A5400BD4680BC704700BF289C0008600300207E
:101A640080B582B000AF78607B68002B0BDB01226D
:101A74004FF400510E4803F068FD7B68DBB2194651
:101A84000020FFF7B1FF7B68002B0DDA00224FF432
:101A94000051074803F059FD7B68DBB25B42DBB2BF
:101AA40019460020FFF7A0FF00BF0837BD4680BDE0
:101AB4000010014080B582B000AF78607B68002BD5
:101AC4000BDB01224FF480410E4803F03EFD7B689E
:101AD400DBB219460120FFF787FF7B68002B0DDA84
:101AE40000224FF48041074803F02FFD7B68DBB2EE
:101AF4005B42DBB219460120FFF776FF00BF0837CF
:101B0400BD4680BD0010014080B582B000AF786052
:101B14007B68002B0ADB012204210E4803F015FD2B
:101B24007B68DBB219460220FFF75EFF7B68002B5F
:101B34000CDA00220421074803F007FD7B68DBB2BE
:101B44005B42DBB219460220FFF74EFF00BF0837A5
:101B5400BD4680BD000C014080B582B000AF786006
:101B64007B68002B0ADB012202210E4803F0EDFC06
:101B74007B68DBB219460320FFF736FF7B68002B36
:101B84000CDA00220221074803F0DFFC7B68DBB299
:101B94005B42DBB219460320FFF726FF00BF08377C
:101BA400BD4680BD0008014080B500AF0020FFF7AE
:101BB40057FF0020FFF77EFF0020FFF7A5FF00205E
:101BC400FFF7CAFF00BF80BD80B582B000AF786068
:101BD4007868FFF745FF7868FFF76CFF7868FFF7D0
:101BE40093FF7868FFF7B8FF00BF0837BD4680BD94
:101BF40080B582B000AF78607B685B421846FFF71F
:101C04002FFF7B685B421846FFF754FF7B685B42FB
:101C14001846FFF779FF7B685B421846FFF79CFF85
:101C240000BF0837BD4680BD80B582B000AF786084
:101C34007B685B421846FFF713FF7868FFF73AFFAB
:101C44007868FFF761FF7B685B421846FFF784FF03
:101C540000BF0837BD4680BD80B582B000AF786054
:101C64007868FFF7FDFE7B685B421846FFF722FFAA
:101C74007B685B421846FFF747FF7868FFF76CFF05
:101C840000BF0837BD4680BD80B582B000AF786024
:101C94000020FFF7E5FE7868FFF70CFF7868FFF790
:101CA40033FF0020FFF758FF00BF0837BD4680BD53
:101CB40080B582B000AF78607868FFF7D1FE00206D
:101CC400FFF7F8FE0020FFF71FFF7868FFF744FFD7
:101CD40000BF0837BD4680BD80B582B000AF7860D4
:101CE4007B685B421846FFF7BBFE0020FFF7E2FE6D
:101CF4000020FFF709FF7B685B421846FFF72CFFC3
:101D040000BF0837BD4680BD80B582B000AF7860A3
:101D14000020FFF7A5FE7B685B421846FFF7CAFE6A
:101D24007B685B421846FFF7EFFE0020FFF714FFC5
:101D340000BF0837BD4680BD80B582B000AF786073
:101D44007B685B421846FFF78BFE7B685B42184654
:101D5400FFF7B0FE7868FFF7D7FE7868FFF7FCFE60
:101D640000BF0837BD4680BD80B582B000AF786043
:101D74007868FFF775FE7868FFF79CFE7B685B4226
:101D84001846FFF7C1FE7B685B421846FFF7E4FE86
:101D940000BF0837BD4680BD80B582B000AF0346A2
:101DA4003960FB713B68002B02D1FFF7FDFE41E077
:101DB400FB79092B3ED801A252F823F0E91D000853
:101DC400F11D0008F91D0008011E0008091E000885
:101DD400111E0008191E0008211E0008291E0008F3
:101DE400311E00083868FFF7EFFE23E03868FFF77C
:101DF400FFFE1FE03868FFF717FF1BE03868FFF7A6
:101E04002BFF17E03868FFF73FFF13E03868FFF750
:101E14004FFF0FE03868FFF75FFF0BE03868FFF70C
:101E240073FF07E03868FFF787FF03E03868FFF7C0
:101E34009BFF00BF0837BD4680BD00BF98B500AF0B
:101E4400002001F075F903465BB2DB005CB20120AF
:101E540001F06EF903465BB29B005BB223435CB2B4
:101E6400022001F065F903465BB25B005BB22343D9
:101E74005CB2032001F05CF903465BB223435BB21E
:101E8400DAB2034B1A70024B1B78184698BD00BF98
:101E9400C501002080B500AF00F0D2FE002000F0A4
:101EA4005BFE012000F058FE022000F055FE0020E9
:101EB400FFF772FD0120FFF76FFD0220FFF76CFDB5
:101EC4000320FFF769FDFFF761F80648FFF770FC90
:101ED400FEF7D0FA01F004F9FEF758FBFEF7CEFB4B
:101EE40000BF80BDAC03002080B500AF604B1B7801
:101EF4000F2B00F2B88001A252F823F0411F000812
:101F0400411F0008411F0008411F0008411F00082D
:101F14006B200008411F0008411F0008411F0008F2
:101F2400411F0008411F0008411F00083720000816
:101F34003720000855200008552000084D494E4818
:101F440001F028FD00F07CFE0346012B03D04B4931
:101F5400494801F01FFD002000F0FEFD0346012B5F
:101F64000BD1012000F0F8FD0346012B05D102201E
:101F740000F0F2FD0346012B03D041493E4801F035
:101F840009FD0020FFF708FD0346012B11D10120B4
:101F9400FFF702FD0346012B0BD10220FFF7FCFCE7
:101FA4000346012B05D10320FFF7F6FC0346012B62
:101FB40003D03449304801F0EDFCFEF7E7FF034657
:101FC400012B03D030492C4801F0E4FC2F48FFF7E3
:101FD400EFFB0346012B03D02D49274801F0DAFC1F
:101FE400FEF748FA0346012B04D101F079F80346C1
:101FF400012B03D02749204801F0CCFCFEF7C6FA98
:102004000346012B04D1FEF739FB0346012B03D011
:102014002149194801F0BEFC2049174801F0BAFCD7
:1020240032214FF4FA7000F029FE0020FEF736FC4E
:102034001BE0FFF72FFF32214FF4FA7000F01EFE71
:102044000020FEF72BFC0521012000F0F3FE0CE03C
:10205400FFF720FF0A214FF4FA7000F00FFE002072
:10206400FEF71CFC01E0002300E00123184680BDBC
:10207400C5010020709A0008F40300208C9A00081F
:10208400AC9A0008CC9A0008EC9A0008AC03002033
:10209400109B0008389B0008649B0008909B000874
:1020A40080B592B000AFCF4B1B780F2B00F2328576
:1020B40001A252F823F000BFFD20000811210008FE
:1020C400AB21000825220008E92200081D2B000886
:1020D400FD230008CB24000835250008BF2700088D
:1020E4007D2900081D2B0008E92500081D2B000888
:1020F400BF2700087D29000800F0DCFD0346002B03
:1021040000F00C85FEF7DEFB00F008BD00F0D2FD08
:102114000346002B00F00485FEF7D4FBFEF7D2F94A
:102124000020FEF715FA0346002B11D0AE4B1B78A6
:102134005BB25B005BB243F001035BB2DAB2AA4B61
:102144001A70A94B1B781846FEF7A8FB00F0E8BCF0
:102154000120FEF7FDF90346002B0CD0A24B1B789F
:102164005B08DAB2A04B1A709F4B1B781846FEF737
:1021740095FB00F0D5BC0220FEF7EAF90346002BDC
:1021840006D0994B1B781846FEF720FA00F0C8BC1D
:102194000320FEF7DDF90346002B00F0C184FEF7AF
:1021A40063FA00F0BDBC01F04BFC0346002B01D0E8
:1021B400FFF712FB00F07EFD0346002B00F0B28413
:1021C400FEF780FBFEF77EF90020FEF7C1F9034617
:1021D400002B14D0FEF7FCFE0346012B09D1FEF7B9
:1021E400BBFF03461E221946804801F0FDFB00F0A8
:1021F40099BC7F497D4801F0CDFB00F093BC0120E0
:10220400FEF7A6F90346002B00F08C84FFF7BAFB17
:10221400034608221946754801F0E6FB00F082BC2B
:1022240000F048FD0346002B00F07E84FEF74AFBD5
:10223400FEF748F96F4B1B78002B3CD10020FEF7CA
:1022440087F90346002B08D01E210020FFF7A4FDC8
:10225400684B3C221A7000F067BC0120FEF778F945
:102264000346002B08D01E210120FFF795FD614B8A
:102274003C221A7000F058BC0220FEF769F90346AC
:10228400002B08D01E210220FFF786FD594B3C226B
:102294001A7000F049BC0320FEF75AF90346002BDC
:1022A40000F042841E210320FFF776FD514B3C22AF
:1022B4001A7000F039BC4F4B1B78013BDAB24D4B1E
:1022C4001A704C4B1B781846FEF7E8FA494B1B78FA
:1022D400002B40F02984FFF767FC0020FEF7DEFAAC
:1022E40000F022BC00F0E6FC0346002B00F01E8444
:1022F400FEF7E8FAFEF7E6F80020FEF729F90346B0
:10230400002B16D00020FEF75DFB03463B64002340
:10231400FB6307F13C0107F140030122184601F079
:10232400D1FC07F13C0304221946304801F05CFB60
:10233400FCE30120FEF70CF90346002B16D0012024
:10234400FEF740FB0346BB6300237B6307F13401C4
:1023540007F138030122184601F0B4FC07F13403F5
:1023640004221946214801F03FFBDFE30220FEF777
:10237400EFF80346002B16D00220FEF723FB03469A
:102384003B630023FB6207F12C0107F130030122B8
:10239400184601F097FC07F12C0304221946134850
:1023A40001F022FBC2E30320FEF7D2F80346002B20
:1023B40000F0BC830320FEF705FB0346BB62002349
:1023C4007B6207F1240107F128030122184601F07A
:1023D40079FC07F1240304221946044801F004FBA4
:1023E400A4E300BFC5010020C6010020F4030020BF
:1023F400B09B0008C701002000F05CFC0346002BE2
:1024040000F09683FEF75EFAFEF75CF80020FEF714
:102414009FF80346002B10D00021002000F0C4FBDD
:102424000021012000F0C0FB0021022000F0BCFBD1
:10243400C449C54801F0AEFA7AE30120FEF788F8F2
:102444000346002B10D00E21002000F0ADFB0E211E
:10245400012000F0A9FB0E21022000F0A5FBBB49DE
:10246400B94801F097FA63E30220FEF771F80346D6
:10247400002B10D01C21002000F096FB1C21012011
:1024840000F092FB1C21022000F08EFBB049AE4804
:1024940001F080FA4CE30320FEF75AF80346002BC0
:1024A40000F046833721002000F07EFB3721012015
:1024B40000F07AFB3721022000F076FBA549A24800
:1024C40001F068FA34E300F0F5FB0346002B00F05A
:1024D4003183FEF7F7F9FDF7F5FF0020FEF738F832
:1024E4000346002B04D00121012000F0A3FC21E3CA
:1024F4000120FEF72DF80346002B04D00121002013
:1025040000F098FC16E30220FEF722F80346002BA5
:1025140004D00521012000F08DFC0BE30320FEF71D
:1025240017F80346002B00F0058300F029FD01E3B2
:1025340000F0C0FB0346002B00F0FE82FEF7C2F958
:10254400FDF7C0FF0020FEF703F80346002B02D07E
:10255400FEF726FFF0E20120FDF7FAFF0346002B09
:1025640008D0FEF73FFFFFF73DF803461846FEF795
:1025740095F9E1E20220FDF7EBFF0346002B16D0AC
:1025840007F1140300221A605A609A60DA60FFF7B8
:1025940033F807F114030822194601F0DDFB07F1B3
:1025A400140310221946684801F01EFAC4E20320FD
:1025B400FDF7CEFF0346002B00F0BE823B1D002238
:1025C4001A605A609A60DA60FFF720F83B1D08220F
:1025D400194601F0C1FB3B1D102219465A4801F06F
:1025E40003FAA9E200F066FB0346002B00F0A68282
:1025F400FDF768FF0020FDF7ABFF0346002B02D078
:10260400FEF7CEFE0CE00120FDF7A2FF0346002BEF
:1026140006D03721022000F0C7FA4F4B01221A706E
:10262400FEF7E0FEFEF7DEFF03461846FEF736F936
:10263400494B1B78012B40F08182FEF743F9FEF7EA
:10264400D1F90120FEF762FA0220FEF731FB0420E3
:10265400FEF75CFA0520FEF72BFB0A20FEF756FA7C
:10266400FEF788FC0346092B55D0092B00F39F8005
:10267400072B02D0082B18D099E0FEF77BFC034609
:102684001A46364B1B889A4200F09380FEF772FC80
:1026940003461A46314B1A800021022000F084FAC6
:1026A4000A21002000F0C6FB83E0FEF763FC03462A
:1026B4001A462A4B1B889A4212D0FEF75BFC03464B
:1026C4001A46264B1A80FEF73DFCFFF76DFA3721B8
:1026D400022000F069FA0521012000F0ABFB6AE05A
:1026E4001F4B1B885A1C1F4B83FB02131911D31752
:1026F400C91A0B469B000B44DB00D11A8AB2184B53
:102704001A80174B1B88002B55D1FEF727FC142089
:10271400FFF75AFA4FE0FEF72DFC03461A460F4B1B
:102724001B889A4220D0FEF725FC03461A460B4B21
:102734001A80FEF707FCFFF737FA0521002000F0A6
:1027440079FB39E0D09B0008F4030020E49B0008E7
:10275400F89B00080C9C0008C8010020CA01002056
:10276400CC01002067666666BE4B1B885A1CBE4BB4
:1027740083FB0213D910D317C91A0B469B000B44D1
:102784009B00D11A8AB2B74B1A80B64B1B88002B18
:1027940003D10021022000F007FA0A21012000F0F1
:1027A40049FBFEF7DBFB0A20FEF754FB04E000BF05
:1027B400C4E100BFC2E100BFC0E100F07BFA034600
:1027C400002B00F0BD81FEF77DF8FEF701FC034607
:1027D400012B40F0B581192387F847300720FEF715
:1027E40011FC0346002B05D097F847305B0087F8AF
:1027F40047300AE00420FEF705FC0346002B04D012
:1028040097F847305B0887F847300020FEF7FAFB5B
:102814000346002B06D097F8473019460020FFF7EF
:10282400BBFA42E00120FEF7EDFB0346002B06D085
:1028340097F8473019460120FFF7AEFA35E0032038
:10284400FEF7E0FB0346002B06D097F84730194605
:102854000220FFF7A1FA28E00220FEF7D3FB03468B
:10286400002B06D097F8473019460320FFF794FA57
:102874001BE00620FEF7C6FB0346002B06D097F8A4
:10288400473019460820FFF787FA0EE00520FEF7C7
:10289400B9FB0346002B06D097F8473019460920A8
:1028A400FFF77AFA01E0FFF77FF90820FEF7AAFBA9
:1028B4000346002B04D00121012000F0BBFA0CE0F8
:1028C4000920FEF79FFB0346002B04D001210020C2
:1028D40000F0B0FA01E000F053FB0A20FEF792FB8F
:1028E4000346002B20D0614B1B78362B06D85F4B58
:1028F4001A785F4B1B781344DBB200E037235B4A42
:1029040013705A4B1B781946002000F04DF9574BB1
:102914001B781946012000F047F9544B1B781946DF
:10292400022000F041F90BE10B20FEF76BFB03469C
:10293400002B00F005814D4B1B78002B06D04B4B30
:102944001A784B4B1B78D31ADBB200E00023474ABA
:102954001370464B1B781946002000F025F9434BB1
:102964001B781946012000F01FF9404B1B781946CB
:10297400022000F019F9E3E001F062F80346002BAD
:1029840001D0FEF729FF00F095F90346002B00F073
:10299400D980FDF797FF192387F846300820FEF702
:1029A4006FFF0346002B05D097F846305B0087F88D
:1029B40046300AE00920FEF763FF0346002B04D0EB
:1029C40097F846305B0887F846300020FEF758FF3A
:1029D4000346002B06D097F8463019460020FFF72F
:1029E400DBF928E00120FEF74BFF0346002B06D05D
:1029F40097F8463019460120FFF7CEF91BE0022074
:102A0400FEF73EFF0346002B06D097F846301946E2
:102A14000220FFF7C1F90EE00320FEF731FF034661
:102A2400002B06D097F8463019460320FFF7B4F977
:102A340001E0FFF7B9F80420FEF722FF0346002B5C
:102A440004D00121002000F0F5F915E00720FEF77D
:102A540017FF0346002B0DD00121012000F0EAF9F5
:102A64000AE000BFCC01002067666666CE01002044
:102A74002600002000F084FA0520FEF701FF03463B
:102A8400002B20D0324B1B78362B06D8304B1A78CB
:102A9400304B1B781344DBB200E037232C4A13700D
:102AA4002B4B1B781946002000F07EF8284B1B782E
:102AB4001946012000F078F8254B1B7819460220AE
:102AC40000F072F83EE00620FEF7DAFE0346002B23
:102AD40038D01F4B1B78002B06D01D4B1A781D4B8A
:102AE4001B78D31ADBB200E00023194A1370184B89
:102AF4001B781946002000F057F8154B1B7819462F
:102B0400012000F051F8124B1B781946022000F006
:102B14004BF817E0002317E000BF14E000BF12E0F9
:102B240000BF10E000BF0EE000BF0CE000BF0AE0F1
:102B340000BF08E000BF06E000BF04E000BF02E001
:102B440000BF00E000BF012318464837BD4680BDE2
:102B5400CF0100202700002080B584B000AF0346D9
:102B6400FB710023FB7312E0FB790D4A52F823300A
:102B740019460C4804F098FF0346002B01D10123A9
:102B840009E0322001F0A2F9FB7B0133FB73FB7BEC
:102B9400022BE9D9002318461037BD4680BD00BF7B
:102BA400389C0008D002002080B485B000AF0346F2
:102BB4000A46FB711346BB71BB79372B01D9372306
:102BC400BB71BB796E2202FB03F31A4A82FB031228
:102BD4001A44D211DB17D31A9BB21433FB81FB794D
:102BE400154A52F82330002B04D1144B1B68FA8980
:102BF4005A6319E0FB79104A52F82330042B04D1AC
:102C04000E4B1A68FB8993630EE0FB790A4A52F86B
:102C14002330082B04D1094B1A68FB89D36303E0E2
:102C2400064B1A68FB89136400BF1437BD4680BC89
:102C3400704700BFB7600BB6389C0008D002002074
:102C440080B582B000AF0023FB710DE00A4804F0A8
:102C54007BFE0346002B01D1012309E0322001F061
:102C640035F9FB790133FB71FB79022BEED9002393
:102C740018460837BD4680BD4002002080B483B0AA
:102C840000AF03460A46FB801346BB80064ABB8856
:102C94001380064AFB881380054B00221A7000BF7C
:102CA4000C37BD4680BC7047D4010020D2010020FF
:102CB400D001002080B400AF084B1B78002B08D053
:102CC400064B00221A70064B1A88064B1A80012301
:102CD40000E000231846BD4680BC7047D0010020A8
:102CE400D4010020D201002080B582B000AF78600A
:102CF4007B681B68B3F1804F14D10C4B1B88002BED
:102D040005D00A4B1B88013B9AB2084B1A80074B2B
:102D14001B88002B02D1064B01221A70FDF7DCFC44
:102D2400FDF7FAFD00BF0837BD4680BDD201002083
:102D3400D001002080B500AF174B184A1A60164B1B
:102D44004FF482725A60144B00229A60124B002294
:102D5400DA60114B00221A610F4B00225A610E4BAC
:102D64004FF480229A610C4B0822DA610A4B00224C
:102D74001A62094B00225A62074B00229A62064BE0
:102D84000A22DA62044803F0FBFF0346002B01D059
:102D9400FEF707FD00BF80BDD801002000300140D0
:102DA40080B588B000AF786007F1100300221A6084
:102DB4005A609A60DA607B681B681B4A93422FD181
:102DC4001A4B9B69194A43F480539361174B9B69CF
:102DD40003F48053FB60FB68144B9B69134A43F074
:102DE40004039361114B9B6903F00403BB60BB684C
:102DF400B0233B6102237B610323FB6107F11003D2
:102E040019460B4802F0F6F940233B6100237B612D
:102E14000023BB6107F110031946054802F0EAF9E3
:102E240000BF2037BD4680BD003001400010024085
:102E34000008014080B582B000AF03460A46FB712A
:102E44001346BB71BB79002B01D1002333E0FB791E
:102E5400002B09D0012B11D1194B1B889BB2B3F560
:102E6400FA6F08D3002326E0154B1B889BB2002B76
:102E740003D100231FE000BF00E000BFFB791A4626
:102E84002021104802F061FB0F4AFB791370BB79D3
:102E9400C82202FB03F30D4A13600D4B1B68322258
:102EA4005A6300210A4804F029FF0346002B01D08D
:102EB400002300E0012318460837BD4680BD00BF4B
:102EC40034020020000C01403602002030020020B1
:102ED4008802002080B582B000AF78607B681B68F0
:102EE400224A93423ED1224B1B68002B32DD214BF8
:102EF4001B78002B18D0012B2CD11F4B1B889BB2A5
:102F0400B3F5FA6F0CD21C4B1B889BB201339AB2F7
:102F1400194B1A80164B1B68013B154A136019E0C4
:102F2400134B00221A6015E0134B1B889BB2002B35
:102F34000CD0114B1B889BB2013B9AB20E4B1A80EA
:102F44000B4B1B68013B0A4A136002E0084B00224A
:102F54001A6000BF064B1B68002B03DC00210748E6
:102F640004F0D4FF00BF0837BD4680BD0004004014
:102F740030020020360200203402002088020020A3
:102F840080B500AF074B00221A600021064804F008
:102F9400BDFF0346002B01D0002300E001231846A7
:102FA40080BD00BF300200208802002080B485B0BC
:102FB40000AF154B9B69144A43F001039361124B14
:102FC4009B6903F00103BB60BB680F4BDB690E4ACE
:102FD40043F08053D3610C4BDB6903F080537B6077
:102FE4007B680A4B5B68FB60FB6823F0E063FB6073
:102FF400FB6843F00073FB60044AFB68536000BF46
:103004001437BD4680BC70470010024000000140E8
:1030140080B400AF00BFFDE780B400AF00BFFDE7A0
:1030240080B400AF00BFFDE780B400AF00BFFDE790
:1030340080B400AF00BFFDE780B400AF00BFBD4661
:1030440080BC704780B400AF00BFBD4680BC7047F1
:1030540080B400AF00BFBD4680BC704780B500AFF0
:1030640000F018FF00BF80BD80B500AF024801F03A
:1030740057FE00BF80BD00BF8000002080B500AFB8
:10308400024805F001F800BF80BD00BF40020020E7
:1030940080B500AF024804F0F7FF00BF80BD00BF59
:1030A4008802002080B500AF024804F0EDFF00BFA5
:1030B40080BD00BFD002002080B500AF024805F0FB
:1030C40033FF00BF80BD00BFAC03002080B500AF5C
:1030D400024805F029FF00BF80BD00BFF4030020B3
:1030E40080B500AF01224FF400410E4802F02DFAE2
:1030F40000224FF400410B4802F027FA01224FF45A
:103104000041084802F021FA0A230122064907482F
:1031140003F0FEFF0346002B01D1012300E000234E
:10312400184680BD000801403C020020D801002060
:1031340080B584B000AF0346FB7100224FF4004118
:10314400184802F002FA01224FF40041154802F037
:10315400FCF90A2301221449144803F0D9FF00237F
:10316400FB7315E0104B1B781946FB7B102202FA07
:1031740003F30B40002B04D0FB7B0D4A0021D154F8
:1031840003E0FB7B0A4A0121D154FB7B0133FB732F
:10319400FB7B032BE6D9FB79054AD35C1846103731
:1031A400BD4680BD000801403C020020D80100203B
:1031B4003802002080B400AF00BFBD4680BC704719
:1031C40080B586B000AF07F1080300221A605A6088
:1031D4009A60DA603B4600221A605A601D4B4FF039
:1031E40080421A601B4B47225A601A4B00229A6095
:1031F400184B40F2E732DA60164B00221A61154B85
:1032040000229A61134804F050FB0346002B01D0BE
:10321400FEF7C7FA4FF48053BB6007F10803194661
:103224000C4805F0E3F80346002B01D0FEF7B9FA89
:1032340000233B6000237B603B461946054805F0AC
:10324400A3FC0346002B01D0FEF7ABFA00BF1837EE
:10325400BD4680BD4002002080B58EB000AF07F1AE
:10326400280300221A605A609A60DA6007F120038A
:1032740000221A605A603B1D00221A605A609A604C
:10328400DA601A615A619A612C4B2D4A1A602B4BF1
:1032940040F2CF225A60294B00229A60274B6322C6
:1032A400DA60264B00221A61244B00229A612348DB
:1032B40004F0FBFA0346002B01D0FEF772FA4FF438
:1032C4008053BB6207F1280319461C4805F08EF8A9
:1032D4000346002B01D0FEF764FA184804F094FB6F
:1032E4000346002B01D0FEF75CFA00233B62002367
:1032F4007B6207F120031946104805F045FC03469C
:10330400002B01D0FEF74DFA60237B600023BB60E5
:103314000023FB6000237B613B1D00221946074804
:1033240004F0A2FF0346002B01D0FEF73AFA03484B
:1033340000F042FA00BF3837BD4680BD8802002045
:103344000004004080B58EB000AF07F128030022CE
:103354001A605A609A60DA6007F1200300221A604A
:103364005A603B1D00221A605A609A60DA601A6142
:103374005A619A61384B394A1A60374B40F29F526E
:103384005A60354B00229A60334B40F2E732DA60E0
:10339400314B00221A61304B00229A612E4804F00E
:1033A40084FA0346002B01D0FEF7FBF94FF4805357
:1033B400BB6207F128031946274805F017F80346AE
:1033C400002B01D0FEF7EDF9234804F01DFB034662
:1033D400002B01D0FEF7E5F900233B6200237B625A
:1033E40007F1200319461C4805F0CEFB0346002BC9
:1033F40001D0FEF7D6F960237B600023BB60002375
:10340400FB6000237B613B1D00221946124804F037
:103414002BFF0346002B01D0FEF7C3F93B1D04220A
:1034240019460D4804F020FF0346002B01D0FEF797
:10343400B8F93B1D08221946074804F015FF034656
:10344400002B01D0FEF7ADF9034800F0B5F900BF39
:103454003837BD4680BD00BFD002002000080040C0
:1034640080B58EB000AF07F1280300221A605A60BD
:103474009A60DA6007F1200300221A605A603B1D4B
:1034840000221A605A609A60DA601A615A619A617D
:103494002C4B2D4A1A602B4B40F2CF225A60294BF9
:1034A40000229A60274B6322DA60264B00221A61BD
:1034B400244B00229A61234804F0F7F90346002BB9
:1034C40001D0FEF76EF94FF48053BB6207F1280375
:1034D40019461C4804F08AFF0346002B01D0FEF76E
:1034E40060F9184804F090FA0346002B01D0FEF767
:1034F40058F900233B6200237B6207F1200319463D
:10350400104805F041FB0346002B01D0FEF749F9B2
:1035140060237B600023BB600023FB6000237B618E
:103524003B1D00221946074804F09EFE0346002B6B
:1035340001D0FEF736F9034800F03EF900BF3837F2
:10354400BD4680BD18030020000C004080B592B039
:1035540000AF07F1400300221A605A6007F1240308
:1035640000221A605A609A60DA601A615A619A619C
:103574003B1D20220021184606F040FA454B464ADE
:103584001A60444B40F2CF225A60424B00229A60A8
:10359400404B6322DA603F4B00221A613D4B00220C
:1035A4005A613C4B00229A613A4804F02DFA0346D2
:1035B400002B01D0FEF7F5F800233B6400237B6465
:1035C40007F140031946334805F0DEFA0346002BA1
:1035D40001D0FEF7E6F860237B620023BB62002380
:1035E400FB6200233B6300237B630023BB63002354
:1035F400FB6307F1240300221946264804F034FE35
:103604000346002B01D0FEF7CCF807F12403042273
:103614001946204804F028FE0346002B01D0FEF78B
:10362400C0F807F12403082219461A4804F01CFEC6
:103634000346002B01D0FEF7B4F807F124030C2253
:103644001946144804F010FE0346002B01D0FEF77F
:10365400A8F800237B600023BB600023FB600023E9
:103664003B6100237B614FF40053BB6100233B6249
:103674003B1D1946074805F0F3FA0346002B01D019
:10368400FEF78FF8034800F097F800BF4837BD46AF
:1036940080BD00BF600300200034014080B586B0C7
:1036A40000AF78607B681B68B3F1804F14D12F4B57
:1036B400DB692E4A43F00103D3612C4BDB6903F031
:1036C40001037B617B69002200211C2001F0D7F8F3
:1036D4001C2001F0F0F844E07B681B68244A934204
:1036E40014D1224BDB69214A43F00203D3611F4BFF
:1036F400DB6903F002033B613B69002200211D20CA
:1037040001F0BDF81D2001F0D6F82AE07B681B68A3
:10371400184A934214D1154BDB69144A43F004034D
:10372400D361124BDB6903F00403FB60FB680022E6
:1037340000211E2001F0A3F81E2001F0BCF810E0C7
:103744007B681B680C4A93420BD1084BDB69074A20
:1037540043F00803D361054BDB6903F00803BB6046
:10376400BB6800BF1837BD4680BD00BF00100240D3
:103774000004004000080040000C004080B485B004
:1037840000AF78607B681B68094A93420BD1094BF0
:103794009B69084A43F400539361064B9B6903F405
:1037A4000053FB60FB6800BF1437BD4680BC704704
:1037B400003401400010024080B58CB000AF786046
:1037C40007F11C0300221A605A609A60DA607B6871
:1037D4001B68464A93422AD1454B9B69444A43F0AD
:1037E40008039361424B9B6903F00803BB61BB6907
:1037F4001023FB6102233B620223BB6207F11C031B
:1038040019463C4801F0F6FC3B4B5B68FB62FB6AE3
:1038140023F44063FB62FB6A43F0E063FB62FB6AF0
:1038240043F40063FB62344AFB6A53605AE07B68EA
:103834001B68324A934219D12D4B9B692C4A43F0A1
:10384400080393612A4B9B6903F008037B617B693E
:103854004FF4E073FB6102233B620223BB6207F176
:103864001C031946234801F0C5FC3BE07B681B6838
:10387400234A934218D11E4B9B691D4A43F004030B
:1038840093611B4B9B6903F004033B613B69012378
:10389400FB6102233B620223BB6207F11C0319464E
:1038A400184801F0A7FC1DE07B681B68164A934288
:1038B40018D10F4B9B690E4A43F0100393610C4BD4
:1038C4009B6903F01003FB60FB684FF47073FB61AA
:1038D40002233B620223BB6207F11C0319460B4817
:1038E40001F088FC00BF3037BD4680BD00040040B5
:1038F40000100240000C014000000140000800409C
:10390400000C004000080140003401400010014058
:1039140080B584B000AF78600023FB7325E07B683A
:103924001B68164A934209D101221549154805F02E
:10393400D5FA0346002B12D101231AE07B681B68D9
:10394400114A934209D101221049114805F0C6FADF
:103954000346002B03D101230BE0002309E03220AE
:1039640000F0B4FAFB7B0133FB73FB7B022BD6D94B
:10397400002318461037BD4680BD00BF0038014003
:10398400A8030020AC03002000440040AA03002048
:10399400F403002090B585B000AF7860396000234F
:1039A400FB7319E03868FCF73BFC03469CB23868AB
:1039B400FCF736FC03465B0022463968786805F05C
:1039C40002FA0346002B01D1012309E0322000F062
:1039D4007DFAFB7B0133FB73FB7B022BE2D90023D3
:1039E40018461437BD4690BD80B586B000AFF86068
:1039F400B9601346FB80BB68002B02D0FB88002B08
:103A040001D1002318E00023FB7511E0FB885B0063
:103A1400FA88B968F86805F0D6F90346002B01D195
:103A2400012309E0322000F051FAFB7D0133FB75DC
:103A3400FB7D022BEAD9002318461837BD4680BD0A
:103A440080B400AF074B1B78DBB2002B04D0054BCE
:103A540000221A70012300E000231846BD4680BCF2
:103A6400704700BFA903002080B400AF024B1B784D
:103A74001846BD4680BC7047A803002080B400AF40
:103A8400024B1B781846BD4680BC7047AA03002031
:103A940080B582B000AF78607B681B680D4A9342A2
:103AA40007D10D4B01221A7001220C490C4805F074
:103AB40015FA7B681B680B4A934207D10A4B012213
:103AC4001A70012209490A4805F008FA00BF0837AC
:103AD400BD4680BD00380140A9030020A803002092
:103AE400AC03002000440040AB030020AA030020E4
:103AF400F403002080B500AF114B124A1A60104B3A
:103B04004FF416525A600E4B00229A600C4B00225E
:103B1400DA600B4B00221A61094B0C225A61084BE4
:103B240000229A61064B0022DA61054805F0FBF891
:103B34000346002B01D0FDF734FE00BF80BD00BF5B
:103B4400AC0300200038014080B500AF114B124A8D
:103B54001A60104B4FF416525A600E4B00229A60B2
:103B64000C4B0022DA600B4B00221A61094B0C2229
:103B74005A61084B00229A61064B0022DA6105481B
:103B840005F0D1F80346002B01D0FDF70AFE00BF73
:103B940080BD00BFF40300200044004080B58AB01B
:103BA40000AF786007F1180300221A605A609A6027
:103BB400DA607B681B683F4A93423AD13E4B9B696B
:103BC4003D4A43F4804393613B4B9B6903F4804338
:103BD4007B617B69384B9B69374A43F004039361EB
:103BE400354B9B6903F004033B613B694FF400735D
:103BF400BB610223FB6103237B6207F118031946AF
:103C04002E4801F0F7FA4FF48063BB610023FB6197
:103C140000233B6207F118031946284801F0EAFA29
:103C240000220021252000F02AFE252000F043FE7A
:103C34003CE07B681B68224A934237D11E4BDB6908
:103C44001D4A43F40033D3611B4BDB6903F4003397
:103C5400FB60FB68184B9B69174A43F004039361AC
:103C6400154B9B6903F00403BB60BB680423BB6171
:103C74000223FB6103237B6207F1180319460F48F3
:103C840001F0B8FA0823BB610023FB6100233B6207
:103C940007F118031946094801F0ACFA0022002183
:103CA400262000F0ECFD262000F005FE00BF28379A
:103CB400BD4680BD003801400010024000080140AC
:103CC4000044004080B487B000AFF860B960134688
:103CD400FB710023FB7535E0FB7D9B00FA68134400
:103CE4001B681A0EFB7D9B001946BB680B44D2B2BD
:103CF4001A70FB7D9B00FA6813441B68190CFB7D4A
:103D04009B000133BA681344CAB21A70FB7D9B004E
:103D1400FA6813441B68190AFB7D9B000233BA68D6
:103D24001344CAB21A70FB7D9B00FA6813441968E5
:103D3400FB7D9B000333BA681344CAB21A70FB7D3F
:103D44000133FB75FA7DFB799A42C5D300BF00BFEE
:103D54001C37BD4680BC704780B487B000AFF860A4
:103D6400B9601346FB710023FB751CE0FB7D5B000F
:103D7400FA6813441B881B0A9AB2FB7D5B00194640
:103D8400BB680B44D2B21A70FB7D5B00FA68134423
:103D94001988FB7D5B000133BA681344CAB21A70F8
:103DA400FB7D0133FB75FA7DFB799A42DED300BFBC
:103DB40000BF1C37BD4680BC70470000FFF7FAF90E
:103DC4000B480C490C4A002302E0D458C450043375
:103DD400C4188C42F9D3094A094C002301E013604A
:103DE4000432A242FBD305F011FEFDF753FC7047E9
:103DF4000000002034000020809C000834000020D3
:103E040040040020FEE7000080B500AF084B1B68AB
:103E1400074A43F010031360032000F025FD0F2030
:103E240000F008F8FFF7C2F80023184680BD00BF71
:103E34000020024080B582B000AF7860124B1A684F
:103E4400124B1B7819464FF47A73B3FBF1F3B2FBB0
:103E5400F3F3184600F03DFD0346002B01D0012387
:103E64000EE07B680F2B0AD8002279684FF0FF30F0
:103E740000F005FD064A7B681360002300E001237F
:103E840018460837BD4680BD2800002030000020B9
:103E94002C00002080B400AF054B1B781A46054B5C
:103EA4001B681344034A136000BFBD4680BC7047BF
:103EB400300000203C04002080B400AF024B1B689B
:103EC4001846BD4680BC70473C04002080B584B0D1
:103ED40000AF7860FFF7F0FFB8607B68FB60FB68B9
:103EE400B3F1FF3F05D00A4B1B781A46FB68134415
:103EF400FB6000BFFFF7E0FF0246BB68D31AFA6815
:103F04009A42F7D800BF00BF1037BD4680BD00BF3E
:103F14003000002080B586B000AF78600023FB75C8
:103F240000233B610023BB600023FB607B68002B04
:103F340001D10123CEE07B689B68002B7B689B6AE0
:103F4400002B09D17B680022DA627B68002283F8A7
:103F540024207868FCF70EFA786800F011FB034619
:103F6400FB757B689B6A03F01003002B40F0A9806B
:103F7400FB7D002B40F0A5807B689B6A23F488536B
:103F840023F0020343F002027B689A627B685A685A
:103F94007B681B6851498B420AD17B68DB69B3F5A6
:103FA400402F02D07B68DB6904E04FF4002301E07A
:103FB4007B68DB691A437B681B7B5B001343BA682D
:103FC4001343BB607B689B68B3F5807F03D07B6839
:103FD4009B68012B02D14FF4807300E000233A69FF
:103FE40013433B617B681B7D012B19D17B681B7BD1
:103FF400002B09D17B689B69013B5A033B6913433E
:1040040043F400633B610BE07B689B6A43F020024E
:104014007B689A627B68DB6A43F001027B68DA6240
:104024007B681B685B6823F469417B681B683A6999
:104034000A435A607B681B689A68294B13407A6864
:104044001268B9680B4393607B689B68B3F5807F03
:1040540003D07B689B68012B04D17B681B69013BFF
:104064001B05FB607B681B68DB6A23F470017B68BB
:104074001B68FA680A43DA627B681B689A68194B02
:104084001340BA689A420BD17B680022DA627B68DB
:104094009B6A23F0030343F001027B689A6218E0F1
:1040A4007B689B6A23F0120343F010027B689A62D8
:1040B4007B68DB6A43F001027B68DA620123FB75EB
:1040C40007E07B689B6A43F010027B689A620123D5
:1040D400FB75FB7D18461837BD4680BD003C01408A
:1040E400FDF7E1FFFE0E1FFF80B586B000AFF8605C
:1040F400B9607A600023FB75FB681B68644A9342CD
:1041040004D0FB681B68634A934206D1604B5B682A
:1041140003F47023002B40F0B380FB6893F8243041
:10412400012B01D10223AEE0FB68012283F8242095
:10413400F86800F0CBF90346FB75FB7D002B40F0DB
:104144009A80FB689B6A23F4706323F0010343F4B1
:104154008072FB689A62FB681B684E4A934205D1E1
:104164004B4B5B6803F47023002B15D1FB689B6AEF
:1041740023F48012FB689A62FB681B685B6803F493
:104184008063002B26D0FB689B6A23F4405343F4DE
:104194008052FB689A621DE0FB689B6A43F48012BC
:1041A400FB689A62FB681B68394A934204D0FB6837
:1041B4001B68384A93420DD1354B5B6803F4806326
:1041C400002B07D0FB689B6A23F4405343F48052CE
:1041D400FB689A62FB689B6A03F48053002B06D049
:1041E400FB68DB6A23F00602FB68DA6202E0FB6824
:1041F4000022DA62FB68002283F82420FB681B6A31
:10420400254A9A62FB681B6A244ADA62FB681B6AC5
:10421400234A1A63FB681B686FF002021A60FB688A
:104224001B689A68FB681B6842F480729A60FB689A
:10423400186AFB681B684C331946BA687B6800F03F
:10424400CBFBFB681B689B6803F46023B3F5602F0A
:1042540008D1FB681B689A68FB681B6842F4A002DB
:104264009A600FE0FB681B689A68FB681B6842F45D
:1042740080129A6006E0FB68002283F8242001E0A3
:104284000123FB75FB7D18461837BD4680BD00BF72
:104294000024014000280140074600088346000826
:1042A4009F46000880B483B000AF786000BF0C372D
:1042B400BD4680BC704780B483B000AF786000BF57
:1042C4000C37BD4680BC704780B483B000AF7860C3
:1042D40000BF0C37BD4680BC7047000080B485B079
:1042E40000AF786039600023FB730023BB607B68F8
:1042F40093F82430012B01D10223DCE07B680122F6
:1043040083F824203B685B68062B1CD87B681B68F9
:10431400596B3B685A6813469B001344053B1F22A4
:1043240002FA03F3DB4319403B6818683B685A6898
:1043340013469B001344053B00FA03F27B681B6899
:104344000A435A633CE03B685B680C2B1CD87B68CF
:104354001B68196B3B685A6813469B001344233B44
:104364001F2202FA03F3DB4319403B6818683B68D9
:104374005A6813469B001344233B00FA03F27B68FC
:104384001B680A431A631BE07B681B68D96A3B6895
:104394005A6813469B001344413B1F2202FA03F35D
:1043A400DB4319403B6818683B685A6813469B0016
:1043B4001344413B00FA03F27B681B680A43DA6248
:1043C4003B681B68092B1CD97B681B68D9683B6850
:1043D4001A6813465B0013441E3B072202FA03F3D8
:1043E400DB4319403B6898683B681A6813465B00D6
:1043F40013441E3B00FA03F27B681B680A43DA602D
:1044040019E07B681B6819693B681A6813465B00EE
:104414001344072202FA03F3DB4319403B6898680C
:104424003B681A6813465B00134400FA03F27B6886
:104434001B680A431A613B681B68102B03D03B6856
:104444001B68112B32D17B681B681D4A934225D10E
:104454007B681B689B6803F40003002B26D17B68F0
:104464001B689A687B681B6842F400029A603B6888
:104474001B68102B1AD1134B1B68134AA2FB03238E
:104484009A0C13469B0013445B00BB6002E0BB68BC
:10449400013BBB60BB68002BF9D107E07B689B6ADA
:1044A40043F020027B689A620123FB737B6800223D
:1044B40083F82420FB7B18461437BD4680BC704724
:1044C400002401402800002083DE1B4380B584B013
:1044D40000AF78600023FB600023BB607B681B682F
:1044E4009B6803F00103012B40D07B681B689A682A
:1044F4007B681B6842F001029A601F4B1B681F4ACD
:10450400A2FB03239B0CBB6002E0BB68013BBB60C6
:10451400BB68002BF9D1FFF7CFFCF8601FE0FFF771
:10452400CBFC0246FB68D31A022B18D97B681B68A4
:104534009B6803F00103012B11D07B689B6A43F055
:1045440010027B689A627B68DB6A43F001027B6835
:10455400DA627B68002283F82420012307E07B6869
:104564001B689B6803F00103012BD8D10023184674
:104574001037BD4680BD00BF2800002083DE1B43EA
:1045840080B584B000AF78600023FB607B681B6853
:104594009B6803F00103012B2ED17B681B689A688A
:1045A4007B681B6822F001029A60FFF785FCF860C3
:1045B4001BE0FFF781FC0246FB68D31A022B14D9D7
:1045C4007B681B689B6803F00103012B0DD17B689A
:1045D4009B6A43F010027B689A627B68DB6A43F053
:1045E40001027B68DA62012307E07B681B689B6831
:1045F40003F00103012BDCD0002318461037BD461D
:1046040080BD80B584B000AF78607B685B6AFB6076
:10461400FB689B6A03F05003002B27D1FB689B6A5D
:1046240043F40072FB689A62FB681B689B6803F49E
:104634006023B3F5602F15D1FB681B7B002B11D1D0
:10464400FB689B6A23F48072FB689A62FB689B6A2E
:1046540003F48053002B05D1FB689B6A43F00102ED
:10466400FB689A62F868FFF71DFE04E0FB681B6AAA
:104674001B6B7868984700BF1037BD4680BD80B576
:1046840084B000AF78607B685B6AFB60F868FFF712
:1046940012FE00BF1037BD4680BD80B584B000AFA8
:1046A40078607B685B6AFB60FB689B6A43F040024E
:1046B400FB689A62FB68DB6A43F00402FB68DA6217
:1046C400F868FFF701FE00BF1037BD4680BD00004B
:1046D40080B485B000AF78607B6803F00703FB60AB
:1046E4000C4BDB68BB60BA684FF6FF031340BB603A
:1046F400FB681A02BB68134343F0BF6343F40033FF
:10470400BB60044ABB68D36000BF1437BD4680BC9D
:10471400704700BF00ED00E080B400AF044BDB68DD
:104724001B0A03F007031846BD4680BC704700BF50
:1047340000ED00E080B483B000AF0346FB7197F94D
:104744000730002B0BDBFB7903F01F02064997F9B6
:1047540007305B09012000FA02F241F8232000BF70
:104764000C37BD4680BC704700E100E080B483B0E4
:1047740000AF03463960FB7197F90730002B0ADB61
:104784003B68DAB20C4997F907301201D2B20B44F4
:1047940083F800230AE03B68DAB20849FB7903F0A6
:1047A4000F03043B1201D2B20B441A7600BF0C373C
:1047B400BD4680BC704700BF00E100E000ED00E0B2
:1047C40080B489B000AFF860B9607A60FB6803F028
:1047D4000703FB61FB69C3F10703042B28BF042310
:1047E400BB61FB690433062B02D9FB69033B00E080
:1047F40000237B614FF0FF32BB6902FA03F3DA4313
:10480400BB681A407B699A404FF0FF317B6901FA1B
:1048140003F3D9437B680B40134318462437BD4642
:1048240080BC704780B582B000AF78607B68013B84
:10483400B3F1807F01D301230FE00A4A7B68013B77
:1048440053600F214FF0FF30FFF790FF054B00221C
:104854009A60044B07221A60002318460837BD46A5
:1048640080BD00BF10E000E080B582B000AF78608A
:104874007868FFF72DFF00BF0837BD4680BD80B5BF
:1048840086B000AF0346B9607A60FB7300237B6196
:10489400FFF742FF78617A68B9687869FFF790FF9B
:1048A400024697F90F3011461846FFF75FFF00BF25
:1048B4001837BD4680BD80B582B000AF0346FB719A
:1048C40097F907301846FFF735FF00BF0837BD4694
:1048D40080BD80B582B000AF78607868FFF7A2FF32
:1048E400034618460837BD4680BD000080B485B035
:1048F40000AF78600023FB607B68002B01D10123AB
:1049040059E07B681B681A462D4B9A420FD87B6886
:104914001B681A462B4B13442B4AA2FB03231B0987
:104924009A007B681A647B68284ADA630EE07B6825
:104934001B681A46264B1344234AA2FB03231B0974
:104944009A007B681A647B68224ADA637B680222D5
:1049540083F821207B681B681B68FB60FB6823F4D9
:104964007F5323F03003FB607B685A687B689B6845
:104974001A437B68DB681A437B681B691A437B68AC
:104984005B691A437B689B691A437B68DB69134341
:10499400FA681343FB607B681B68FA681A607B68DB
:1049A40000229A637B68012283F821207B6800221D
:1049B40083F82020002318461437BD4680BC704776
:1049C40007040240F8FFFDBFCDCCCCCC0000024070
:1049D400F8FBFDBF0004024080B586B000AFF8606C
:1049E400B9607A603B600023FB75FB6893F8203064
:1049F400012B01D102234BE0FB68012283F8202024
:104A0400FB6893F82130DBB2012B3AD1FB68022218
:104A140083F82120FB6800229A63FB681B681A68EC
:104A2400FB681B6822F001021A603B687A68B96867
:104A3400F86800F0B1FBFB68DB6A002B08D0FB6868
:104A44001B681A68FB681B6842F00E021A600FE0CC
:104A5400FB681B681A68FB681B6822F004021A6072
:104A6400FB681B681A68FB681B6842F00A021A603C
:104A7400FB681B681A68FB681B6842F001021A6035
:104A840005E0FB68002283F820200223FB75FB7DF0
:104A940018461837BD4680BD80B485B000AF786035
:104AA4000023FB737B6893F82130DBB2022B08D020
:104AB4007B6804229A637B68002283F82020012308
:104AC40020E07B681B681A687B681B6822F00E0272
:104AD4001A607B681B681A687B681B6822F00102F5
:104AE4001A607B681A6C7B68DB6B012101FA02F2A5
:104AF4005A607B68012283F821207B68002283F8B6
:104B04002020FB7B18461437BD4680BC704700004C
:104B140080B584B000AF78600023FB737B6893F8A2
:104B24002130DBB2022B05D07B6804229A63012377
:104B3400FB73D6E07B681B681A687B681B6822F0ED
:104B44000E021A607B681B681A687B681B6822F077
:104B540001021A607B681B681A46644B9A4258D952
:104B64007B681B68624A93424FD07B681B68614A2A
:104B7400934248D07B681B685F4A934240D07B686D
:104B84001B685E4A934238D07B681B685C4A934238
:104B940030D07B681B685B4A934228D07B681B68D3
:104BA400524A934220D07B681B68574A934219D0DB
:104BB4007B681B68554A934212D07B681B68544A31
:104BC40093420AD07B681B68524A934202D14FF445
:104BD40080531BE04FF4803318E04FF4807315E0EA
:104BE400102313E0012311E04FF080730EE04FF423
:104BF40080130BE04FF4803308E04FF4805305E05A
:104C04004FF4807302E0102300E00123424A536012
:104C140057E07B681B68364A93424FD07B681B6819
:104C2400344A934248D07B681B68334A934240D04D
:104C34007B681B68314A934238D07B681B68304AD2
:104C4400934230D07B681B682E4A934228D07B68FD
:104C54001B68264A934220D07B681B682A4A9342E9
:104C640019D07B681B68294A934212D07B681B6861
:104C7400274A93420AD07B681B68264A934202D192
:104C84004FF480531BE04FF4803318E04FF48073EB
:104C940015E0102313E0012311E04FF080730EE0C0
:104CA4004FF480130BE04FF4803308E04FF480534B
:104CB40005E04FF4807302E0102300E00123174A5B
:104CC40053607B68012283F821207B68002283F8EB
:104CD40020207B685B6B002B03D07B685B6B786860
:104CE4009847FB7B18461037BD4680BD80000240C4
:104CF400080002401C000240300002404400024010
:104D0400580002406C000240080402401C040240A7
:104D14003004024044040240000402400000024007
:104D240080B584B000AF78607B68DB6B1B68FB6088
:104D34007B681B681B68BB607B681B6C04229A4001
:104D4400FB681340002B00F0F180BB6803F0040300
:104D5400002B00F0EB807B681B681B6803F02003CA
:104D6400002B07D17B681B681A687B681B6822F0DC
:104D740004021A607B681B681A465F4B9A4258D932
:104D84007B681B685D4A93424FD07B681B685C4A12
:104D9400934248D07B681B685A4A934240D07B6850
:104DA4001B68594A934238D07B681B68574A934220
:104DB40030D07B681B68564A934228D07B681B68B6
:104DC4004D4A934220D07B681B68524A934219D0C3
:104DD4007B681B68504A934212D07B681B684F4A19
:104DE40093420AD07B681B684D4A934202D14FF428
:104DF40080431BE04FF4802318E04FF4806315E0F8
:104E0400402313E0042311E04FF080630EE04FF4DD
:104E140080030BE04FF4802308E04FF4804305E067
:104E24004FF4806302E0402300E004233D4A5360D2
:104E340057E07B681B68314A93424FD07B681B68FC
:104E44002F4A934248D07B681B682E4A934240D035
:104E54007B681B682C4A934238D07B681B682B4ABA
:104E6400934230D07B681B68294A934228D07B68E0
:104E74001B68214A934220D07B681B68254A9342D1
:104E840019D07B681B68244A934212D07B681B6844
:104E9400224A93420AD07B681B68214A934202D17A
:104EA4004FF480431BE04FF4802318E04FF48063F9
:104EB40015E0402313E0042311E04FF080630EE07B
:104EC4004FF480030BE04FF4802308E04FF4804359
:104ED40005E04FF4806302E0402300E00423124A1B
:104EE40053607B68DB6A002B00F036817B68DB6AE9
:104EF4007868984730E100BF800002400800024013
:104F04001C000240300002404400024058000240AD
:104F14006C000240080402401C04024030040240B9
:104F24004404024000040240000002407B681B6C01
:104F340002229A40FB681340002B00F0DD80BB681E
:104F440003F00203002B00F0D7807B681B681B680A
:104F540003F02003002B0BD17B681B681A687B6865
:104F64001B6822F00A021A607B68012283F8212060
:104F74007B681B681A467B4B9A4258D97B681B682E
:104F8400794A93424FD07B681B68784A934248D051
:104F94007B681B68764A934240D07B681B68754ADD
:104FA400934238D07B681B68734A934230D07B6845
:104FB4001B68724A934228D07B681B68694A9342F3
:104FC40020D07B681B686E4A934219D07B681B68AB
:104FD4006C4A934212D07B681B686B4A93420AD096
:104FE4007B681B68694A934202D14FF400531BE06B
:104FF4004FF4003318E04FF4007315E0202313E05E
:10500400022311E04FF000730EE04FF400130BE0A5
:105014004FF4003308E04FF4005305E04FF40073FD
:1050240002E0202300E00223594A536057E07B68E2
:105034001B684D4A93424FD07B681B684B4A93428E
:1050440048D07B681B684A4A934240D07B681B68FF
:10505400484A934238D07B681B68474A934230D011
:105064007B681B68454A934228D07B681B683D4A8D
:10507400934220D07B681B68414A934219D07B68D5
:105084001B68404A934212D07B681B683E4A934295
:105094000AD07B681B683D4A934202D14FF4005307
:1050A4001BE04FF4003318E04FF4007315E02023A5
:1050B40013E0022311E04FF000730EE04FF40013ED
:1050C4000BE04FF4003308E04FF4005305E04FF4D5
:1050D400007302E0202300E002232E4A53607B6821
:1050E400002283F820207B689B6A002B34D07B68E5
:1050F4009B6A786898472FE07B681B6C08229A406B
:10510400FB681340002B28D0BB6803F00803002B76
:1051140023D07B681B681A687B681B6822F00E0228
:105124001A607B681A6C7B68DB6B012101FA02F25E
:105134005A607B6801229A637B68012283F82120EC
:105144007B68002283F820207B681B6B002B04D033
:105154007B681B6B7868984700BF00BF1037BD465B
:1051640080BD00BF80000240080002401C000240D5
:105174003000024044000240580002406C000240EB
:10518400080402401C04024030040240440402406B
:10519400000402400000024080B485B000AFF86013
:1051A400B9607A603B60FB681A6CFB68DB6B0121B9
:1051B40001FA02F25A60FB681B683A685A60FB689D
:1051C4005B68102B08D1FB681B687A689A60FB68DF
:1051D4001B68BA68DA6007E0FB681B68BA689A6003
:1051E400FB681B687A68DA6000BF1437BD4680BC70
:1051F4007047000080B48BB000AF78603960002342
:105204007B6200233B6279E101227B6A02FA03F3A9
:10521400FB613B681B68FA691340BB61BA69FB69AF
:105224009A4240F068813B685B68964A93425ED03C
:10523400944A934275D8944A934258D0924A9342DE
:105244006FD8924A934252D0904A934269D8904A76
:1052540093424CD08E4A934263D88E4A934246D0AE
:105264008C4A93425DD8122B2AD8122B59D801A20A
:1052740052F823F0F3520008CD520008DF52000820
:105284002153000827530008275300082753000818
:105294002753000827530008275300082753000802
:1052A40027530008275300082753000827530008F2
:1052B4002753000827530008D5520008E952000874
:1052C400754A934213D02CE03B68DB683B6229E0CB
:1052D4003B68DB6804333B6224E03B68DB680833EB
:1052E4003B621FE03B68DB680C333B621AE03B68BF
:1052F4009B68002B02D104233B6213E03B689B684C
:10530400012B05D108233B627B68FA691A6109E025
:1053140008233B627B68FA695A6103E000233B621D
:1053240000E000BFBB69FF2B01D87B6801E07B680C
:1053340004337B61BB69FF2B02D87B6A9B0002E0CC
:105344007B6A083B9B003B617B691A680F213B69C0
:1053540001FA03F3DB431A40396A3B6901FA03F3A8
:105364001A437B691A603B685B6803F08053002B27
:1053740000F0C180494B9B69484A43F001039361A3
:10538400464B9B6903F00103BB60BB68444A7B6ADC
:105394009B08023352F82330FB607B6A03F003035B
:1053A4009B000F2202FA03F3DB43FA681340FB600D
:1053B4007B683C4A93421FD07B683B4A934219D096
:1053C4007B683A4A934213D07B68394A93420DD0A2
:1053D4007B68384A934207D07B68374A934201D1AD
:1053E40005230AE0062308E0042306E0032304E07F
:1053F400022302E0012300E000237A6A02F00302A0
:1054040092009340FA681343FB6025497B6A9B082A
:105414000233FA6841F823203B685B6803F4801385
:10542400002B06D0254B9A682449BB6913438B6033
:1054340006E0224B9A68BB69DB43204913408B602A
:105444003B685B6803F40013002B06D01B4BDA683F
:105454001A49BB691343CB6006E0184BDA68BB6991
:10546400DB4316491340CB603B685B6803F40033AD
:10547400002B25D0114B5A681049BB6913434B606C
:1054840025E000BF0000321000003110000022109F
:105494000000211000001210000011100010024042
:1054A4000000014000080140000C014000100140D0
:1054B4000014014000180140001C01400004014098
:1054C400154B5A68BB69DB43134913404B603B6877
:1054D4005B6803F48033002B06D00F4B1A680E4927
:1054E400BB6913430B6006E00B4B1A68BB69DB43D3
:1054F400094913400B607B6A01337B623B681A687D
:105504007B6A22FA03F3002B7FF47EAE00BF00BF58
:105514002C37BD4680BC70470004014080B485B080
:1055240000AF78600B467B807B689A687B88134069
:10553400002B02D00123FB7301E00023FB73FB7BF0
:1055440018461437BD4680BC704780B483B000AFA2
:1055540078600B467B8013467B707B78002B03D0EE
:105564007A887B681A6103E07B881A047B681A6175
:1055740000BF0C37BD4680BC704780B485B000AF17
:1055840078600B467B807B68DB68FB607A88FB680D
:1055940013401A04FB68D9437B880B401A437B6889
:1055A4001A6100BF1437BD4680BC704780B584B013
:1055B40000AF78607B68002B01D101232BE17B686D
:1055C40093F83D30DBB2002B06D17B68002283F8D0
:1055D4003C207868FBF7A4FE7B68242283F83D20F6
:1055E4007B681B681A687B681B6822F001021A60DA
:1055F4007B681B681A687B681B6842F400421A6067
:105604007B681B681A687B681B6822F400421A6076
:1056140001F0BAFAF8607B685B68814A934207D864
:10562400FB68804A934294BF01230023DBB206E067
:10563400FB687D4A934294BF01230023DBB2002B15
:1056440001D00123E7E0FB68784AA2FB03239B0C0B
:10565400BB607B681B685B6823F03F017B681B6849
:10566400BA680A435A607B681B681B6A23F03F01CF
:105674007B685B686A4A934202D8BB68013309E0DD
:10568400BB684FF4967202FB03F3694AA2FB03233F
:105694009B0901337A6812680B4313627B681B68A9
:1056A400DB6923F44F4222F0FF027B685B685C49AC
:1056B4008B4219D8FB68591E7B685B685B00B1FBA1
:1056C400F3F3591C40F6FC730B40002B0AD0FB6823
:1056D400591E7B685B685B00B1FBF3F30133C3F3D2
:1056E4000B0351E004234FE07B689B68002B11D12E
:1056F400FB68581E7B6859680B465B000B44B0FB83
:10570400F3F30133C3F30B03002B0CBF012300237A
:10571400DBB212E0FB68581E7B6859680B469B009D
:105724000B4499000B44B0FBF3F30133C3F30B03B5
:10573400002B0CBF01230023DBB2002B01D001237B
:1057440022E07B689B68002B0ED1FB68581E7B68A7
:1057540059680B465B000B44B0FBF3F30133C3F30E
:105764000B0343F400430FE0FB68581E7B68596841
:105774000B469B000B4499000B44B0FBF3F301333D
:10578400C3F30B0343F44043796809681343CB61C3
:105794007B681B681B6823F0C0017B68DA697B683F
:1057A4001B6A1A437B681B680A431A607B681B6880
:1057B4009B6823F4034323F0FF037A6811697A6832
:1057C400D26811437A6812680B4393607B681B6844
:1057D400DB6823F0FF017B685A697B689B691A4385
:1057E4007B681B680A43DA607B681B681A687B68FD
:1057F4001B6842F001021A607B6800221A647B680D
:10580400202283F83D207B6800221A637B680022F3
:1058140083F83E20002318461037BD4680BD00BFE4
:10582400A08601007F841E00FF083D0083DE1B4329
:10583400D34D621080B58CB002AFF8607A601A461E
:105844000B467B8113463B8100233B62FEF734FB0E
:105854007862FB6893F83D30DBB2202B40F04B823A
:105864007B6A0093192301227F49F86800F04AFCFF
:105874000346002B01D002233EE2FB6893F83C3040
:10588400012B01D1022337E2FB68012283F83C207B
:10589400FB681B681B6803F00103012B07D0FB683E
:1058A4001B681A68FB681B6842F001021A60FB68F7
:1058B4001B681A68FB681B6822F400621A60FB68A4
:1058C400222283F83D20FB68102283F83E20FB68E7
:1058D40000221A64FB687A685A62FB683A895A851E
:1058E400FB685B8D9AB2FB681A85FB685F4ADA62D3
:1058F40079897B6A3A6BF86800F036FB0346002B23
:1059040001D00123F8E1FB681B8D002B13D1002388
:10591400FB61FB681B685B69FB61FB681B689B6937
:10592400FB61FB69FB681B681A68FB681B6842F42F
:1059340000721A60CCE1FB681B8D012B1ED1FB6841
:105944001B681A68FB681B6822F480621A6072B6CE
:1059540000BF0023BB61FB681B685B69BB61FB681C
:105964001B689B69BB61BB69FB681B681A68FB68A1
:105974001B6842F400721A6062B635E0FB681B8D46
:10598400022B1ED1FB681B681A68FB681B6842F473
:1059940000621A6072B600BF00237B61FB681B685B
:1059A4005B697B61FB681B689B697B617B69FB6846
:1059B4001B681A68FB681B6822F480621A6062B66E
:1059C40012E0FB681B681A68FB681B6842F480627B
:1059D4001A6000233B61FB681B685B693B61FB68E1
:1059E4001B689B693B613B6972E1FB681B8D032B60
:1059F40000F21F81FB681B8D012B23D17A6A396B5E
:105A0400F86800F099FC0346002B01D0012373E1F0
:105A1400FB681B681A69FB685B6AD2B21A70FB6880
:105A24005B6A5A1CFB685A62FB681B8D013B9AB285
:105A3400FB681A85FB685B8D9BB2013B9AB2FB68DD
:105A44005A8545E1FB681B8D022B52D17B6A00937A
:105A54003B6B00220649F86800F054FB0346002B18
:105A640008D0012348E100BF020010000000FFFF3E
:105A74000400010072B600BFFB681B681A68FB686B
:105A84001B6842F400721A60FB681B681A69FB68A1
:105A94005B6AD2B21A70FB685B6A5A1CFB685A6272
:105AA400FB681B8D013B9AB2FB681A85FB685B8D12
:105AB4009BB2013B9AB2FB685A8562B600BFFB6891
:105AC4001B681A69FB685B6AD2B21A70FB685B6A6E
